:100000000C9416350C9447350C9447350C944735B1
:100010000C9447350C949A7E0C9447350D945E1DD4
:100020000C94257E0C9447350C9447350C94473539
:100030000C9447350C9447350C94C8FF0D945D45DE
:100040000C9447350C9400BD0C9447350C944735FF
:100050000C9447350C9447350C9447350D94E47057
:100060000C9447350D948F400C9447350C944735CC
:100070000C9447350C9447350C9447350C94473510
:100080000C9447350C9447350C9447350C94473500
:100090000D944B400C9447350C9447350C944735E0
:1000A0000C9447350C9447350D9460440C944735B7
:1000B0000C9447350D9442440C9447350C944735C5
:1000C0000C9447350C9447350C9447350D94BA255C
:1000D0000C9447350C9447350C9447350C944735B0
:1000E0000C9447355FD170D182D18FD199D1CCD1C9
:1000F00049D1F1D103D2FFD149D105D222D236D292
:1001000048D26AD731D716D79AD7C5D7EAD686D973
:10011000E3D71AD9C2E5C2E5C5E5C2E5C5E5C8E53C
:10012000CBE5FFE696E966E95BE950E945E93AE99E
:10013000B9E9A9E913E9E5E8C9E88601E4014E0255
:10014000CE013402D201A001A40170016002640258
:10015000BC014C021E027201AA013E02BE016E02E7
:10016000260208025402AC0172016C016A015602B7
:10017000B6017E010C02FC0150028202EC01C601B4
:100180005201D4015A029C016E0132028202200205
:100190003602DC018A016C022A02C801AE012E027D
:1001A000820112023C02D6013C02D6013C02D60179
:1001B000F0015001460260019E0166027402720263
:1001C000A60154011602E60188010402E201084A70
:1001D000D73B3BCE016E84BCBFFDC12F3D6C74315B
:1001E0009ABD56833DDA3D00C77F11BED9E4BB4CB2
:1001F0003E916BAAAABE000000803F05A84CCDB27C
:10020000D44EB93836A9020C50B9918688083CA65C
:10021000AAAA2ABE000000803F07634236B79BD8D7
:10022000A71A39685618AEBAAB558C1D3CB7CC57D7
:1002300063BD6DEDFD753EF6177231BF00000080A5
:100240003F08000000BE922449123EABAAAA2ABE73
:10025000CDCCCC4C3E00000080BEABAAAAAA3E008A
:10026000000000BF000000803F00000000000841C7
:1002700078D3BB4387D1133D190E3CC3BD4282AD39
:100280002B3E68EC8276BED98FE1A93E4C80EFFF11
:10029000BE01C4FF7F3F0000000000000D94727497
:1002A0000D9432730D94D1680D9461890D947B2A5D
:1002B0000D94627D0D940C5C0D9483AB0D942A4FCC
:1002C0000D9408890D94045C0D94BD280D94082E9E
:1002D0000D9436670D9426670D9422670D94FE6881
:1002E0000D9474260D942F670D94AF5A0D94D66714
:1002F0000D94FD560D94E45B0D94C2670D949E68B9
:100300000D94937C0D9464710D94AF540D94FC2561
:100310000D9494890D9400710D94762F0D94DB67E4
:100320000D943F670D9449130D94145C0D94D1679F
:100330000D94D6570D94CB540D94EF680D941889F5
:100340000D9449260D9427030D9469260D94538925
:100350000D94E7400D94FC660D941C670D943B7161
:100360000D94235D0D94FB7D0D941B5D0D94996898
:100370000D94092D0D94CB520D94E7660D940667EC
:100380000D941F5D0D949D280D9489520D94C9689C
:100390000D9429710D94CC670D9427700D9434261B
:1003A0000D94EC5B0D9442260D94DB680D942E7336
:1003B0000D94B9020D94692A0D9426690D94451F78
:1003C0000D94F82C0D94A8890D9426260D947D8902
:1003D0000D9477870D94D3750D94C1680D94DC5BF3
:1003E0000D9430730D94265C0D94B35B0D942854DA
:1003F0000D946AAA0D94B2280D94AD680D94E87F0F
:100400000D94A22E0D94C7670D949A890D94EF7CDC
:100410000D9414670D9430670D94A3680D94A38216
:100420000D94C35B0D947A710D944C7D0D946F897E
:100430000D94FC5B0D94BB5B0D94C1310D94F16682
:100440000D9412690D9443740D94A65A0D940E6781
:100450000D94847C0D941C710D94F45B0D94427189
:100460000D94B92D0D9408690D943B260D941C69CB
:100470000D94D45B0D94605D0D942C730D94006706
:100480000D9490390D94FC4E0D94AC550D94FA8852
:100490000D94BF750D9442530D94EB660D942D266B
:1004A0000D94B7680D94B8670D9418670D942A677A
:1004B0000D9456580D94E5680D94B85A0D94012D7D
:1004C0000D94F5660D943A670D94F8660D942A899B
:1004D0000D9400820D94ED750D940E710D940A67C4
:1004E0000D9419280D944D890D9447890D949028E9
:1004F0000D947E740D94BD670D94A95B0D949D5A67
:100500000D94A0550D9430696E616E00696E6600A1
:100510004E414E494E495459494E46CDCCCC3D0AE8
:10052000D7233C17B7D13877CC2B329595E6241FCB
:10053000B14F0A000020410000C84200401C462084
:10054000BCBE4CCA1B0E5AAEC59D7400407A10F357
:100550005A00A0724E18090010A5D4E80000E876F1
:1005600048170000E40B54020000CA9A3B00000048
:10057000E1F505000080969800000040420F000061
:1005800000A08601000000102700000000E8030022
:100590000000006400000000000A000000000001EC
:1005A00000000000002C76D888DC674F0823DFC1EC
:1005B000DFAE59E1B1B796E5E3E453C63AE65199A7
:1005C0007696E8E6C28426EB898C9B62ED407C6FD0
:1005D000FCEFBC9C9F40F2BAA56FA5F490055A2A87
:1005E000F75C936B6CF9676DC11BFCE0E40D47FE93
:1005F000F520E6B500D0ED902E0300943577050088
:1006000080841E080000204E0A000000C80C33330E
:1006100033330F986E12831141EF8D2114893BE61D
:100620005516CFFEE6DB18D1844B381BF77C1D90A6
:100630001DA4BBE424203284725E228100C9F1240F
:10064000ECA1E53D272564206279746573207772FB
:10065000697474656E20746F20454550524F4D206B
:10066000617420616464726573732030782530345E
:1006700078004433202D20526561642F57726974CD
:100680006520454550524F4D0A0020436F756E74EA
:1006900020583A20005344207072696E74696E6766
:1006A000206279746520004163746976652045781D
:1006B0007472756465723A2000496E76616C696483
:1006C000206578747275646572005A204F6666738F
:1006D000657400556E6B6E6F776E20636F6D6D6124
:1006E0006E643A2022004D32303020496E76616CC3
:1006F000696420657874727564657220007A5F6D34
:1007000061783A20007A5F6D696E3A2000795F6DFA
:1007100061783A2000795F6D696E3A2000785F6DEC
:1007200061783A20006F70656E0054524947474522
:1007300052454400785F6D696E3A20005265706FD3
:100740007274696E6720656E6473746F7020737461
:10075000617475730053494C454E54004E4F524DD1
:10076000414C002553204D4F44453A20506572635B
:10077000656E7420646F6E653A2025643B2070724C
:10078000696E742074696D652072656D61696E694A
:100790006E6720696E206D696E733A2025640A00C9
:1007A000456E642066696C65206C697374004265EF
:1007B00067696E2066696C65206C697374000A5005
:1007C000494E44412074656D70657261747572653F
:1007D0003A20252E3166205A2073686966742028D5
:1007E0006D6D293A20252E3366000A537465703AE0
:1007F0002025642F360A000A537465703A20256458
:100800002F362028736B6970706564290A50494E31
:1008100044412074656D70657261747572653A202B
:100820002564205A20736869667420286D6D293A02
:10083000300A000A5A45524F3A20252E33660A00E4
:1008400073746172742074656D7065726174757211
:10085000653A20252E31660A0025642020252E3297
:100860006600255320583A20252E356620593A2017
:10087000252E3566205A3A20252E35660A00536CFF
:100880006565702E2E2E004E6F7420696E20666195
:10089000726D206D6F64652E0025640045303A2529
:1008A000642052504D0A50524E303A256420525026
:1008B0004D0A00256400442D31202D20456E646CC6
:1008C000657373206C6F6F700A00416476616E63AC
:1008D00065204B3D004B206F7574206F6620616C66
:1008E0006C6F7765642072616E676521004D3232EE
:1008F000302053256900255346696C616D656E741F
:100900002073657474696E67733A20446973616219
:100910006C65640A00255346696C616D656E7420D0
:1009200073657474696E67733A0A25532020204DED
:100930003230302044252E32660A00255352657429
:10094000726163743A20533D4C656E677468202869
:100950006D6D2920463A537065656420286D6D2FB2
:100960006D29205A3A205A4C69667420286D6D29E9
:100970000A25532020204D3230372053252E326651
:100980002046252E3266205A252E32660A255352DD
:1009900065636F7665723A20533D457874726120C5
:1009A0006C656E67746820286D6D2920463A537017
:1009B00065656420286D6D2F6D290A255320202040
:1009C0004D3230382053252E32662046252E326691
:1009D0000A25534175746F2D526574726163743AC0
:1009E00020533D3020746F2064697361626C652C04
:1009F000203120746F20696E746572707265742086
:100A0000657874727564652D6F6E6C79206D6F7684
:100A10006573206173207265747261637473206FF3
:100A200072207265636F7665726965730A2553205B
:100A300020204D323039205325640A002553504977
:100A40004420686561746265642073657474696EBE
:100A500067733A0A25532020204D33303420502527
:100A60002E32662049252E32662044252E32660A13
:100A70000025535049442073657474696E67733A56
:100A80000A25532020204D3330312050252E326648
:100A90002049252E32662044252E32660A00255331
:100AA00053746570732070657220756E69743A0AAC
:100AB000255320204D39322058252E3266205925C5
:100AC0002E3266205A252E32662045252E32660AA1
:100AD00025535553746570207265736F6C75746916
:100AE0006F6E3A200A2553204D3335302058256447
:100AF00020592564205A2564204525640A25534D34
:100B00006178696D756D2066656564726174657381
:100B1000202D206E6F726D616C20286D6D2F7329F2
:100B20003A0A255320204D3230332058252E326684
:100B30002059252E3266205A252E32662045252E34
:100B400032660A25534D6178696D756D206665655D
:100B5000647261746573202D20737465616C7468B0
:100B600020286D6D2F73293A0A255320204D3230ED
:100B7000332058252E32662059252E3266205A25DC
:100B80002E32662045252E32660A25534D6178693E
:100B90006D756D20616363656C65726174696F6EFC
:100BA000202D206E6F726D616C20286D6D2F733259
:100BB000293A0A255320204D3230312058256C75B2
:100BC0002059256C75205A256C752045256C750AB1
:100BD00025534D6178696D756D20616363656C6542
:100BE000726174696F6E202D20737465616C746816
:100BF00020286D6D2F7332293A0A255320204D325B
:100C000030312058256C752059256C75205A256C7B
:100C1000752045256C750A2553416363656C6572C3
:100C20006174696F6E3A20533D616363656C6572F0
:100C30006174696F6E2C20543D72657472616374C7
:100C400020616363656C65726174696F6E0A255318
:100C500020204D3230342053252E32662054252E4C
:100C600032660A2553416476616E6365642076615D
:100C7000726961626C65733A20533D4D696E2066FE
:100C80006565647261746520286D6D2F73292C2051
:100C9000543D4D696E2074726176656C20666565A1
:100CA000647261746520286D6D2F73292C20423D7C
:100CB0006D696E696D756D207365676D656E742005
:100CC00074696D6520286D73292C20583D6D6178FD
:100CD000696D756D205859206A65726B20286D6D9D
:100CE0002F73292C20205A3D6D6178696D756D2018
:100CF0005A206A65726B20286D6D2F73292C202075
:100D0000453D6D6178696D756D2045206A65726B32
:100D100020286D6D2F73290A255320204D32303540
:100D20002053252E32662054252E32662042252E51
:100D300032662058252E32662059252E3266205ADA
:100D4000252E32662045252E32660A2553486F6DC2
:100D500065206F666673657420286D6D293A0A25D3
:100D60005320204D3230362058252E32662059250A
:100D70002E3266205A252E32660A004D4B33203D16
:100D80003E2027462564202564270A005049442038
:100D90004175746F74756E652066696E69736865F8
:100DA00064212050757420746865206C6173742010
:100DB0004B702C204B6920616E64204B6420636F64
:100DC0006E7374616E74732066726F6D2061626FF2
:100DD000766520696E746F20436F6E666967757201
:100DE0006174696F6E2E6800504944204175746FBC
:100DF00074756E65206661696C6564212074696D27
:100E0000656F75740020403A00543A00423A005031
:100E10004944204175746F74756E65206661696C14
:100E20006564212054656D7065726174757265200A
:100E3000746F6F206869676800204B643A20002057
:100E40004B693A2000204B703A200020436C6173BC
:100E50007369632050494420002054753A200020D3
:100E60004B753A2000206D61783A2000206D696E44
:100E70003A200020643A200020626961733A200021
:100E800020453A00205A3A0020593A0020453A00BD
:100E9000205A3A0020593A00583A004361703A25E6
:100EA000533A25630A004155544F5245504F52540E
:100EB0005F54454D5000005A30005A3100593000FF
:100EC000593100583000583100456E642073746FFA
:100ED00070732064696167002E0044656C657469F5
:100EE0006F6E206661696C65642C2046696C653A9A
:100EF000200046696C652064656C657465643A0021
:100F00004E6F74205344207072696E74696E67006E
:100F10005072696E7420736176656400534420706A
:100F200072696E7420706175736564003B53004F85
:100F30004B004241440052414D426F2046414E20F9
:100F40000043524153485F43414E43454C00435296
:100F50004153485F5245434F564552004352415317
:100F6000485F5245434F56455200222832290044DB
:100F700075706C696361746520542D636F646520BE
:100F800069676E6F7265642E0A004475706C6963E0
:100F900061746520542D636F64652069676E6F729C
:100FA00065642E0A00496E76616C69642054206382
:100FB0006F64652E00556E6B6E6F776E204D2063EB
:100FC0006F64653A202573200A006E6F2076616C8D
:100FD000696420636F6D6D616E64002C20002C20AD
:100FE000002C20006E2F61002C20002C20002C20D3
:100FF000006E2F6100503A005761697420666F726D
:101000002050494E444120746172676574207465B4
:101010006D70657261747572653A004C414E47207F
:1010200053454C20464F5243454400256925250A27
:1010300000256925250A002228312900303030306A
:10104000303030302D303030302D303030302D30A9
:101050003030302D30303030303030303030303093
:101060000020555549443A00310020455854525506
:101070004445525F434F554E543A00426F6E64747C
:101080006563682D4D4D2D545A42204D4B33732DC1
:10109000485400204D414348494E455F54595045FE
:1010A0003A00312E3000206261736564206F6E203B
:1010B0004D61726C696E204649524D574152455FF1
:1010C00055524C3A68747470733A2F2F676974687C
:1010D00075622E636F6D2F707275736133642F505C
:1010E000727573612D4669726D7761726520505219
:1010F0004F544F434F4C5F56455253494F4E3A0061
:101100004649524D574152455F4E414D453A507206
:101110007573612D4669726D7761726520004D317E
:10112000313320530020423A0020453A00543A001F
:101130006F6B20002569206D696E2C202569207356
:10114000656300496E76616C6964204D20636F644D
:10115000653A202573200A00556E6B6E6F776E20FE
:101160004720636F64653A202573200A004D65733C
:101170006820626564206C6576656C696E67206EB8
:101180006F74206163746976652E002020000A4D1B
:101190006561737572656420706F696E74733A006F
:1011A0000A5A2073656172636820686569676874AC
:1011B0003A20004E756D20582C593A2000206D6958
:1011C00063726F6E7300457863657373697665202B
:1011D000626564206C6576656C696E6720636F720A
:1011E00072656374696F6E3A2000426564206C65B5
:1011F00076656C696E67206661696C65642E205344
:10120000656E736F722074726967676572656420BA
:10121000746F6F20686967682E0A00426564206CED
:101220006576656C696E67206661696C65642E2001
:1012300053656E736F7220646973636F6E6E65635E
:10124000746564206F72206361626C652062726FE6
:101250006B656E2E0A004732382057300050494ED9
:1012600044412070726F62652063616C69627261D3
:1012700074696F6E2073746172740047323820573E
:1012800030004E6F2050494E444120746865726DA5
:101290006973746F72004D3234005345545F434894
:1012A0004F505F005345545F535445505F005345C2
:1012B000545F574156455F00544D435F00435241D0
:1012C00053485F00472D636F646520736C696365E5
:1012D0006420666F72206120646966666572656E5F
:1012E00074206C6576656C2E20436F6E74696E7524
:1012F000653F00472D636F646520736C69636564A7
:1013000020666F72206120646966666572656E741E
:10131000206C6576656C2E20506C6561736520725B
:10132000652D736C69636520746865206D6F6465F5
:101330006C20616761696E2E205072696E74206343
:10134000616E63656C6C65642E00472D636F646528
:1013500020736C6963656420666F722061206E651E
:10136000776572206669726D776172652E20506CA8
:1013700065617365207570646174652074686520AB
:101380006669726D776172652E205072696E742085
:1013900063616E63656C6C65642E00472D636F64DA
:1013A0006520736C6963656420666F722061206ECE
:1013B00065776572206669726D776172652E20436C
:1013C0006F6E74696E75653F00472D636F646520AD
:1013D000736C6963656420666F722061206469665E
:1013E000666572656E74207072696E7465722074C1
:1013F0007970652E20506C656173652072652D7360
:101400006C69636520746865206D6F64656C20612C
:101410006761696E2E205072696E742063616E631D
:10142000656C6C65642E00472D636F646520736C7A
:101430006963656420666F72206120646966666511
:1014400072656E74207072696E7465722074797042
:10145000652E20436F6E74696E75653F00472D637E
:101460006F646520736C6963656420666F722061C8
:1014700020646966666572656E74207072696E7448
:10148000657220747970652E20436F6E74696E7575
:10149000653F00472D636F646520736C6963656405
:1014A00020666F72206120646966666572656E747D
:1014B000207072696E74657220747970652E205088
:1014C0006C656173652072652D736C69636520744A
:1014D0006865206D6F64656C20616761696E2E20A0
:1014E0005072696E742063616E63656C6C65642E06
:1014F000005072657373206B6E6F6220746F207082
:10150000726568656174206E6F7A7A6C6520616EB1
:101510006420636F6E74696E75652E00506C656132
:10152000736520707265737320746865206B6E6FCD
:101530006220746F20756E6C6F61642066696C61E7
:101540006D656E740052656D6F766520656A6563C2
:101550007465642066696C616D656E7420616E648B
:1015600020707265737320746865206B6E6F6220E3
:10157000746F207374617274206C6F6164696E673C
:10158000206E65772066696C616D656E742E0061F2
:101590006E6420707265737320746865206B6E6F63
:1015A0006200496E736572742066696C616D656E68
:1015B0007400436F6C6F72206E6F7420636F727271
:1015C0006563740046696C616D656E74206E6F743E
:1015D000206C6F61646564004368616E67656420B8
:1015E000636F72726563746C793F004C6F616469FC
:1015F0006E6720636F6C6F72004368616E67652071
:10160000737563636573732100506C656173652046
:101610006F70656E2069646C657220616E64207203
:10162000656D6F76652066696C616D656E74206DA1
:10163000616E75616C6C792E005761732066696C00
:10164000616D656E7420756E6C6F61642073756377
:101650006365737366756C3F00506C6561736520DC
:10166000757067726164652E004E657720666972D9
:101670006D776172652076657273696F6E20617631
:1016800061696C61626C653A0057616974696E6783
:1016900020666F722050494E44412070726F62651F
:1016A00020636F6F6C696E670043726173682064BA
:1016B000657465637465642E20526573756D65206D
:1016C0007072696E743F0043726173682064657460
:1016D00065637465642E0045787472756465720084
:1016E00043686F6F73652065787472756465723ACC
:1016F0000043686F6F73652066696C616D656E7419
:101700003A004E6F206D6F76652E00576169742028
:10171000666F7220757365722E2E2E00536F6D6585
:101720002070726F626C656D20656E636F756E748C
:10173000657265642C205A2D6C6576656C696E67E0
:1017400020656E666F72636564202E2E2E005374C2
:1017500061626C6520616D6269656E742074656D8F
:1017600070657261747572652032312D3236432096
:101770006973206E656564656420612072696769BC
:1017800064207374616E6420697320726571756979
:101790007265642E00506C656173652072756E20F1
:1017A00058595A2063616C6962726174696F6E2066
:1017B00066697273742E006164635F696E69740A8E
:1017C000000A204F726967696E616C2050727573F0
:1017D000612069330A2020205072757361205265A0
:1017E00073656172636800436F6E74696E7565201E
:1017F0007769746820616E6F7468657220626F77B4
:1018000064656E3F0025002020202020200020203D
:10181000202020200045524153494E4720616C6CE6
:10182000206461746100466163746F72792052456F
:1018300053455400466163746F7279205245534595
:10184000540044495341424C454400454E41424CAA
:10185000454400202873656E736F7220626F617259
:1018600064207265766973696F6E3A2553290A00A0
:101870004653656E736F7220255300494E543400F1
:101880004D4B33534D4D553253004E4F4D4B33530B
:10189000002E014E4F4354554100414C5446414E99
:1018A000004F6374203133203230323000436F6D8B
:1018B00070696C65643A2000286E6F6E652C206438
:1018C000656661756C7420636F6E66696729004F89
:1018D000637420313320323032302031343A35399C
:1018E0003A35320020332E392E312D333531380A36
:1018F000007374617274002055706C6F61642069AC
:101900006E2070726F677265737300205A3A002000
:10191000593A0020583A0043524153485F444554D5
:10192000454354454458590043524153485F444548
:10193000544543544544590043524153485F44453C
:1019400054454354454458004D3239004578746538
:10195000726E616C2053504920666C6173680A573F
:101960003235583230434C206973206E6F742072C8
:1019700065732D0A706F6E64696E672E204C616E00
:1019800067756167650A73776974636820756E614E
:101990007661696C61626C652E00437261736844A4
:1019A00065746563742044495341424C4544004387
:1019B0007261736844657465637420454E41424C9E
:1019C0004544210045787472756465722066616EC5
:1019D00020747970653A2000573235583230434CC4
:1019E000206E6F7420726573706F6E64696E672EFF
:1019F0000A002020506C616E6E65724275666665E5
:101A00007242797465733A20002046726565204DF4
:101A1000656D6F72793A2000207C20417574686F83
:101A2000723A2000204C61737420557064617465B3
:101A3000643A200020536F667477617265205265A6
:101A400073657400205761746368646F6720526522
:101A5000736574002042726F776E206F7574205228
:101A600065736574002045787465726E616C2052F0
:101A70006573657400506F7765725570006572729A
:101A80006F722077726974696E6720746F2066695F
:101A90006C6500656E6473746F7073206869743A66
:101AA0002000446F6E6520736176696E67206669F9
:101AB0006C652E006F6B004D4B3353206669726D61
:101AC00077617265206465746563746564206F6E08
:101AD000204D4B33207072696E74657200426F6ED8
:101AE00064746563682D4D4D2D545A42204D4B331F
:101AF000732D4854204F4B2E00426C61636B6F7501
:101B000074206F636375727265642E205265636F13
:101B1000766572207072696E743F0053656C6674EE
:101B20006573742077696C6C2062652072756E2015
:101B3000746F2063616C69627261746520616363B4
:101B400075726174652073656E736F726C65737303
:101B5000207265686F6D696E672E005468657265E6
:101B6000206973207374696C6C2061206E656564F4
:101B700020746F206D616B65205A2063616C69620F
:101B8000726174696F6E2E20506C6561736520669A
:101B90006F6C6C6F7720746865206D616E75616C19
:101BA0002C206368617074657220466972737420BA
:101BB00073746570732C2073656374696F6E204352
:101BC000616C6962726174696F6E20666C6F772EEA
:101BD000005072696E74657220686173206E6F7454
:101BE000206265656E2063616C6962726174656410
:101BF000207965742E20506C6561736520666F6C6A
:101C00006C6F7720746865206D616E75616C2C2037
:101C100063686170746572204669727374207374AE
:101C20006570732C2073656374696F6E2043616CFB
:101C30006962726174696F6E20666C6F772E004FF7
:101C40006C642073657474696E677320666F756E5B
:101C5000642E2044656661756C74205049442C20C4
:101C6000457374657073206574632E2077696C6C9E
:101C7000206265207365742E005761726E696E670D
:101C80003A20626F7468207072696E746572207495
:101C900079706520616E64206D6F74686572626F23
:101CA0006172642074797065206368616E67656431
:101CB0002E005761726E696E673A207072696E7499
:101CC00065722074797065206368616E6765642E43
:101CD000005761726E696E673A206D6F7468657245
:101CE000626F6172642074797065206368616E67E9
:101CF00065642E0022206661696C65643A20427535
:101D0000666665722066756C6C210022002569206C
:101D1000686F757273202569206D696E75746573BF
:101D20000054494D454F55543A004D31313000462D
:101D3000756C6C2052582042756666657200656E3F
:101D4000717565696E67202200446F6E6520707240
:101D5000696E74696E672066696C65004D31313259
:101D60002063616C6C65642E20456D657267656EDD
:101D700063792053746F702E005072696E746572AF
:101D80002073746F707065642064756520746F20B3
:101D90006572726F72732E204669782074686520B0
:101DA0006572726F7220616E6420757365204D39A3
:101DB000393920746F20726573746172742E202813
:101DC00054656D70657261747572652069732072F7
:101DD000657365742E205365742069742061667480
:101DE00065722072657374617274696E6729004E42
:101DF0006F204C696E65204E756D62657220776943
:101E0000746820636865636B73756D2C204C617317
:101E100074204C696E653A20004E6F2043686563FC
:101E20006B73756D2077697468206C696E65206EC0
:101E3000756D6265722C204C617374204C696E65FF
:101E40003A2000636865636B73756D206D69736D0F
:101E5000617463682C204C617374204C696E653A20
:101E600020004C696E65204E756D62657220697345
:101E7000206E6F74204C617374204C696E65204E27
:101E8000756D6265722B312C204C617374204C6926
:101E90006E653A200053544F505045442E20004D5B
:101EA000363030006673656E736F725F7570646193
:101EB0007465202D204D3630300A0049522073655C
:101EC0006E736F72206E6F7420726573706F6E64C4
:101ED000696E672028256429210A0020573A0020CE
:101EE000453A00543A005A206C6976652061646A6C
:101EF000757374206F7574206F662072616E6765EC
:101F00002E2053657474696E6720746F20302E2004
:101F1000436C69636B20746F20636F6E74696E75B8
:101F2000652E005A206C6976652061646A75737449
:101F3000206F7574206F662072616E67652E205366
:101F4000657474696E6720746F20300020423A0017
:101F500020453A00543A00494E54340048656174B3
:101F6000696E672064697361626C656420627920C0
:101F70007361666574792074696D65722E004653CD
:101F80002076302E33206F72206F6C6465720046AD
:101F9000532076302E34206F72206E657765720084
:101FA000496E6163746976697479205368757464E5
:101FB0006F776E004B494C4C45442E20005072699F
:101FC0006E7465722068616C7465642E206B696C38
:101FD0006C28292063616C6C656421004B494C4C72
:101FE0003A2025640A004D32323120496E76616C08
:101FF000696420657874727564657220004D3231B1
:102000003820496E76616C696420657874727564F5
:10201000657220004D31303920496E76616C6964FB
:1020200020657874727564657220004D31303520FA
:10203000496E76616C696420657874727564657246
:1020400020004D31303420496E76616C6964206522
:10205000787472756465722000504F574552205055
:10206000414E494320444554454354454400555648
:102070004C4F202D20656E642025640A0055564C77
:102080004F5F54494E59202D20656E642025640A07
:102090000058595A2063616C6962726174696F6E8D
:1020A00020616C6C2072696768742E20536B6577B1
:1020B0002077696C6C20626520636F72726563744F
:1020C0006564206175746F6D61746963616C6C79AE
:1020D0002E0058595A2063616C6962726174696F8D
:1020E0006E20616C6C2072696768742E20582F59BD
:1020F00020617865732061726520736C696768740C
:102100006C7920736B657765642E20476F6F642050
:102110006A6F62210058595A2063616C696272616A
:1021200074696F6E206F6B2E20582F59206178656F
:1021300073206172652070657270656E6469637585
:102140006C61722E20436F6E67726174756C61747E
:10215000696F6E73210058595A2063616C6962720D
:102160006174696F6E206661696C65642E205269C6
:102170006768742066726F6E742063616C69627246
:102180006174696F6E20706F696E74206E6F742059
:10219000726561636861626C652E0058595A2063EC
:1021A000616C6962726174696F6E206661696C65E9
:1021B000642E2046726F6E742063616C6962726176
:1021C00074696F6E20706F696E7473206E6F742007
:1021D000726561636861626C652E0058595A2063AC
:1021E000616C6962726174696F6E206661696C65A9
:1021F000642E20506C6561736520636F6E73756C1F
:102200007420746865206D616E75616C2E0058597C
:102210005A2063616C6962726174696F6E20636FCA
:102220006D70726F6D697365642E20526967687492
:102230002066726F6E742063616C6962726174698A
:102240006F6E20706F696E74206E6F74207265619E
:10225000636861626C652E0058595A2063616C692D
:1022600062726174696F6E20636F6D70726F6D69F9
:102270007365642E2046726F6E742063616C6962B0
:10228000726174696F6E20706F696E7473206E6F07
:102290007420726561636861626C652E0058595ADA
:1022A0002063616C6962726174696F6E2066616936
:1022B0006C65642E204265642063616C69627261A2
:1022C00074696F6E20706F696E7420776173206E11
:1022D0006F7420666F756E642E00506C6561736557
:1022E00020706C61636520737465656C207368652C
:1022F0006574206F6E20686561746265642E0044A9
:10230000697374616E6365206265747765656E20BC
:10231000746970206F6620746865206E6F7A7A6CBD
:102320006520616E64207468652062656420737541
:10233000726661636520686173206E6F74206265E8
:10234000656E20736574207965742E20506C65610C
:10235000736520666F6C6C6F7720746865206D61A3
:102360006E75616C2C2063686170746572204669BB
:102370007273742073746570732C20736563746951
:102380006F6E204669727374206C61796572206388
:10239000616C6962726174696F6E2E00506C61636A
:1023A000652061207368656574206F6620706170B8
:1023B000657220756E64657220746865206E6F7A30
:1023C0007A6C6520647572696E6720746865206335
:1023D000616C6962726174696F6E206F66206669F4
:1023E000727374203420706F696E74732E20496686
:1023F00020746865206E6F7A7A6C652063617463FF
:10240000686573207468652070617065722C207037
:102410006F776572206F66662074686520707269D8
:102420006E74657220696D6D6564696174656C793F
:102430002E00506C656173652072656D6F76652046
:10244000737465656C2073686565742066726F6D62
:1024500020686561746265642E0049732073746539
:10246000656C207368656574206F6E2068656174A3
:102470006265643F00206F662034005365617263BB
:1024800068696E67206265642063616C696272616D
:1024900074696F6E20706F696E7400206F662039EA
:1024A000004D6561737572696E672072656665724D
:1024B000656E636520686569676874206F66206370
:1024C000616C6962726174696F6E20706F696E749D
:1024D00000506C6561736520636C65616E20746883
:1024E00065206E6F7A7A6C6520666F722063616C0E
:1024F0006962726174696F6E2E20436C69636B2030
:102500007768656E20646F6E652E004175746F206C
:10251000686F6D650078797A63616C5F6D65617372
:10252000737572655F656E7465720A0078797A6397
:10253000616C5F73706972616C382063783D2564EB
:102540002063793D2564207A303D256420647A3DFE
:102550002564207261646975733D25642061643D62
:1025600025640A0078797A63616C5F7365617263D0
:10257000685A206E6F207369676E616C0A20783D1F
:10258000256C6420793D256C64207A3D256C640AB5
:1025900000204F4E2D5349474E414C206174207806
:1025A0003D256420793D2564207A3D2564206164C1
:1025B0003D25640A0078797A63616C5F73656172A6
:1025C00063685A20783D256C6420793D256C642031
:1025D0007A3D256C640A000A00253032780078794B
:1025E0007A63616C5F7363616E5F706978656C7349
:1025F0005F33327833322063783D25642063793D40
:102600002564206D696E5F7A3D2564206D61785F79
:102610007A3D25640A00202532642025640A000AD8
:10262000002530327800206D696E3D2564206D6193
:10263000783D2564206469663D25640A006D6178F3
:102640005F633D253264206D61785F6C3D25640ACF
:10265000006D61785F633D2564206D61785F723D38
:102660002564206D61785F6D617463683D25640A3F
:102670000020783D256420793D2564207A3D25643D
:102680000A00207061747465726E20666F756E64E6
:102690002061742025642025640A000000F000F801
:1026A00001FC03FE07FE07FE07FE07FC03F801F02E
:1026B00000000073697A656F6628746F74616C2915
:1026C0003D25640A0073697A656F6628626C6F63E2
:1026D0006B5F627566666572293D25640A007879CC
:1026E0007A63616C5F6D656173737572655F6C654C
:1026F0006176650A00706F696E743D256420783DCF
:10270000256420793D2564207A3D25640A0058021D
:102710005802584D584DB004F055F055B004787932
:102720007A63616C5F66696E645F6265645F696E3F
:1027300064756374696F6E5F73656E736F725F70DB
:102740006F696E745F787920783D256C6420793DDF
:10275000256C64207A3D256C640A00203C200057DB
:1027600041524E494E473A2046726F6E7420706F48
:10277000696E74206E6F7420726561636861626C4B
:10278000652E205920636F6F7264696E6174653ABB
:102790000000000040410000C04000005C43000019
:1027A000C04000005C430000464300004041000080
:1027B0004643497465726174696F6E3A20004361E3
:1027C0006C6962726174696F6E206661696C6564C0
:1027D0002120436865636B207468652061786573A8
:1027E00020616E642072756E20616761696E2E00D3
:1027F0000000803F555585410000803F0000C841E2
:1028000000000040555505420000C03F000048420E
:102810000000204055558542000070C1ABAAA64279
:10282000000060C10000A0410000C0C000002041C5
:1028300000002041ABAA3A41000020C15555D540C7
:10284000000048C25555054246696C616D656E745D
:10285000206E72206F7574206F662072616E6765DE
:102860002100773235783230636C5F63666D0A0021
:10287000773235783230636C5F656E7465720A004A
:1028800073746172740A00506C65617365207265BF
:102890006D6F76652066696C616D656E7420616E22
:1028A00064207468656E2070726573732074686547
:1028B000206B6E6F622E00456A656374696E6720D7
:1028C00066696C616D656E740020746F6F206C6F4B
:1028D0006E6720657874727573696F6E20707265AB
:1028E00076656E7465640020636F6C64206578742F
:1028F000727573696F6E2070726576656E7465644B
:102900000024F4D43050C38E20C2A24017828B70B2
:1029100011127A910D816CD90AA861E108C7586635
:1029200007615143061E4B5D05C145A7041A4111BD
:1029300004093D9803713931034036DB0265339158
:1029400002D4305402802E1D02632CEE01752AC57C
:1029500001B028A001102781018F2564012B244B91
:1029600001E0223401AC211F018D200D01801FFCEC
:1029700000841EED00971DDF00B81CD200E61BC6C8
:1029800000201BBC00641AB200B219A8000A19A0EA
:10299000006A189900D117910040178B00B5168472
:1029A0000031167E00B31579003A157300C7146F15
:1029B0000058146A00EE1366008813630025135E46
:1029C00000C7125B006C12570015125400C1115160
:1029D0000070114F0021114B00D61049008D104797
:1029E000004610440002104200C00F4000800F3E1D
:1029F00000420F3C00060F3B00CB0E3800930E3711
:102A0000005C0E3500270E3400F30D3200C10D318D
:102A100000900D3000600D2E00320D2D00050D2CA4
:102A200000D90C2B00AE0C2900850C29005C0C276A
:102A300000350C27000E0C2600E80B2400C40B24E4
:102A400000A00B23007D0B23005A0B2100390B2122
:102A500000180B2000F80A1F00D90A1E00BB0A1E2E
:102A6000009D0A1D00800A1D00630A1C00470A1B06
:102A7000002C0A1B00110A1A00F7091A00DD0919B7
:102A800000C4091900AB091900920917007B091845
:102A900000630917004C09160036091600200916B4
:102AA000000A091500F5081500E0081400CC081408
:102AB00000B8081400A4081400900813007D081240
:102AC000006B081300580812004608120034081161
:102AD00000230811001208110001081100F007106E
:102AE00000E0071000D0071000C0071000B0070F6B
:102AF00000A107100091070E0083070F0074070F55
:102B00000065070E0057070E0049070E003B070D32
:102B1000002E070E0020070D0013070D0006070DFD
:102B200000F9060C00ED060D00E0060C00D4060CC2
:102B300000C8060C00BC060C00B0060C00A4060B76
:102B40000099060C008D060B0082060B0077060B21
:102B5000006C060B0061060A0057060B004C060AC3
:102B60000042060A0038060A002E060A0024060A59
:102B7000001A060A001006090007060A00FD0509EA
:102B800000F4050900EB050900E2050900D9050973
:102B900000D0050900C7050900BE050900B50508F4
:102BA00000AD050800A50509009C0508009405086E
:102BB000008C050800840508007C050800740508E1
:102BC000006C050700650508005D0507005605084F
:102BD000004E0507004705070040050800380507B7
:102BE00000310507002A050700230507001C05061C
:102BF00000160507000F0507000805060002050777
:102C000000FB040600F5040700EE040600E80406D5
:102C100000E2040700DB040600D5040600CF04062A
:102C200000C9040600C3040600BD040600B704067C
:102C300000B1040500AC040600A6040600A00405CB
:102C4000009B04060095040500900406008A040514
:102C50000085040500800406007A0405007504055B
:102C600000700405006B040500660405006104059E
:102C7000005C04050057040500520405004D0405DE
:102C80000048040500430405003E0404003A04051E
:102C90000035040500300404002C0405002704045A
:102CA00000230405001E0404001A04040016040591
:102CB00000110404000D04040009040500040404C8
:102CC0000000040400FC030400F8030400F40304FF
:102CD00000F0030400EC030400E8030400E4030430
:102CE00000E0030400DC030400D8030400D4030460
:102CF00000D0030400CC030400C8030300C5030391
:102D00000024F404D9201BC40C5C0E9804C4095F91
:102D10000265077101F405F900FB04B3004804875C
:102D200000C10369005803550003034500BE023A81
:102D3000008402310053022A0029022500040220E7
:102D400000E4011C00C8011900AF0117009801142C
:102D50000084011300710110006101100051010E87
:102D60000043010D0036010B002B010B0020010B6D
:102D700000150109000C01090003010800FB00080F
:102D800000F3000800EB000700E4000600DE000688
:102D900000D8000600D2000600CC000500C70005E0
:102DA00000C2000500BD000400B9000400B5000425
:102DB00000B1000400AD000400A9000400A5000358
:102DC00000A20003009F0004009B00030098000382
:102DD000009500020093000300900003008D0002A4
:102DE000008B0003008800020086000200840003BC
:102DF00000810002007F0002007D0002007B0002D3
:102E000000790002007700010076000200740002E1
:102E10000072000100710002006F0002006D0001ED
:102E2000006C0002006A00010069000200670001F6
:102E300000660001006500010064000200620001FC
:102E40000061000100600001005F0002005D000100
:102E5000005C0001005B0001005A00010059000104
:102E60000058000100570001005600010055000104
:102E70000054000100530000005300010052000103
:102E80000051000100500001004F0001004E000001
:102E9000004E0001004D0001004C0001004B0000FD
:102EA000004B0001004A00010049000100480000F9
:102EB00000480001004700010046000000460001F4
:102EC00000450000004500010044000100430000EF
:102ED00000430001004200000042000100410000E8
:102EE0000041000100400001003F0000003F0001E0
:102EF000003E0000003E0001003D0000003D0001DA
:102F0000003C0000003C0000003C0001003B0000D1
:102F1000003B0001003A0000003A000100390000C7
:102F200000390001003800000038000000380001BE
:102F300000370000003700010036000000360000B6
:102F400000360001003500000035000000350001AA
:102F500000340000003400000034000100330000A1
:102F60000033000000330001003200000032000096
:102F7000003200010031000000310000003100018A
:102F8000003000000030000000300001002F000081
:102F9000002F0000002F0000002F0001002E000075
:102FA000002E0000002E0001002D0000002D00006A
:102FB000002D0000002D0001002C0000002C00005E
:102FC000002C0000002C0001002B0000002B000052
:102FD000002B0000002B0001002A0000002A000046
:102FE000002A0000002A000100290000002900003A
:102FF000002900000029000000290001002800002D
:10300000002800000028000000280000002800011F
:103010000027000000270000002700000027000014
:103020000027000100260000002600000026000006
:1030300000260000002600010025000000250000F9
:1030400000250000002500000025000000250001EB
:1030500000240000002400000024000000240000E0
:1030600000240001002300000023000000230000D2
:1030700000230000002300000023000000230001C3
:1030800000220000002200000022000000220000B8
:1030900000220000002200010021000000210000A9
:1030A000002100000021000000210000002100009C
:1030B000002100010020000000200000002000008E
:1030C0000020000000200000002000000020000080
:1030D00000200001001F0000001F0000001F000072
:1030E000001F0000001F0000001F0000001F000163
:1030F000001E0000001E0000001E0000001E000058
:10310000004578747275646572004D6F7665205A5B
:10311000004D6F76652059004D6F7665205800434D
:103120007261736820646574656374696F6E20638F
:10313000616E0A6265207475726E6564206F6E2020
:103140006F6E6C7920696E0A4E6F726D616C206DC6
:103150006F6465005741524E494E473A0A437261C7
:10316000736820646574656374696F6E0A6469735B
:1031700061626C656420696E0A537465616C746881
:10318000206D6F6465004175746F6C6F6164696E6A
:10319000672066696C616D656E7420617661696C2B
:1031A00061626C65206F6E6C79207768656E206651
:1031B000696C616D656E742073656E736F722069E2
:1031C00073207475726E6564206F6E2E2E2E00450E
:1031D00052524F523A2046696C616D656E7420738D
:1031E000656E736F72206973206E6F7420726573E1
:1031F000706F6E64696E672C20706C6561736520FA
:10320000636865636B20636F6E6E656374696F6E70
:103210002E004D6F6465206368616E676520696E7E
:103220002070726F6772657373202E2E2E004361BB
:103230006C69627261746500536865657420252E3F
:1032400037730A5A206F66667365743A20252B31EE
:103250002E3366206D6D0A2563436F6E74696E753B
:10326000650A256353746172742066726F6D207AEB
:1032700065726F00506C65617365206C6F616420CE
:1032800066696C616D656E742066697273742E0078
:1032900049732066696C616D656E74206C6F616442
:1032A00065643F0043616E63656C0046696C616DE7
:1032B000656E740053656C6563742066696C616D3E
:1032C000656E743A0052756E6E696E672057697A42
:1032D0006172642077696C6C2064656C657465202C
:1032E00063757272656E742063616C696272617479
:1032F000696F6E20726573756C747320616E6420E3
:1033000073746172742066726F6D207468652062D8
:103310006567696E6E696E672E20436F6E74696EA5
:1033200075653F0050726568656174696E67206EEF
:103330006F7A7A6C652E20506C65617365207761B9
:1033400069742E004C6F6164696E672066696C61F8
:103350006D656E7400506C6561736520696E736590
:1033600072742066696C616D656E7420696E746F2D
:10337000207468652065787472756465722C207499
:1033800068656E20707265737320746865206B6E5B
:103390006F6220746F206C6F61642069742E00501E
:1033A0006C6561736520696E736572742066696C03
:1033B000616D656E7420696E746F20746865206637
:1033C000697273742074756265206F662074686515
:1033D000204D4D552C207468656E20707265737396
:1033E00020746865206B6E6F6220746F206C6F6153
:1033F000642069742E00546865207072696E74656B
:10340000722077696C6C20737461727420707269B9
:103410006E74696E672061207A69672D7A61672012
:103420006C696E652E20526F7461746520746865D6
:10343000206B6E6F6220756E74696C20796F7520D9
:10344000726561636820746865206F7074696D616E
:103450006C206865696768742E20436865636B201B
:1034600074686520706963747572657320696E2075
:103470007468652068616E64626F6F6B20284361B9
:103480006C6962726174696F6E20636861707465E3
:1034900072292E0053656C6563742074656D7065C8
:1034A000726174757265207768696368206D6174F4
:1034B0006368657320796F7572206D6174657269D8
:1034C000616C2E0043686F6F736520612066696CC4
:1034D000616D656E7420666F722074686520466940
:1034E000727374204C617965722043616C696272F9
:1034F0006174696F6E20616E642073656C656374BE
:1035000020697420696E20746865206F6E2D736366
:103510007265656E206D656E752E004E6F77204961
:103520002077696C6C2063616C69627261746520DC
:1035300064697374616E6365206265747765656E36
:1035400020746970206F6620746865206E6F7A7AC7
:103550006C6520616E6420686561746265642073C7
:103560007572666163652E00596F752063616E2008
:10357000616C7761797320726573756D652074680D
:10358000652057697A6172642066726F6D204361AD
:103590006C6962726174696F6E202D3E2057697A82
:1035A0006172642E00506C656173652063686563A9
:1035B0006B206F75722068616E64626F6F6B206143
:1035C0006E6420666978207468652070726F626C22
:1035D000656D2E205468656E20726573756D65206B
:1035E0007468652057697A61726420627920726517
:1035F000626F6F74696E6720746865207072696E9F
:103600007465722E00416C6C20697320646F6E6566
:103610002E204861707079207072696E74696E67CF
:103620002100496620796F752068617665206164A4
:10363000646974696F6E616C20737465656C207366
:1036400068656574732C2063616C6962726174656E
:10365000207468656972207072657365747320697F
:103660006E2053657474696E6773202D204857204F
:103670005365747570202D20537465656C207368D4
:10368000656574732E00506C6561736520636C65AD
:10369000616E206865617462656420616E64207487
:1036A00068656E20707265737320746865206B6E38
:1036B0006F622E00446F20796F752077616E7420E1
:1036C000746F20726570656174206C61737420730F
:1036D00074657020746F20726561646A75737420FC
:1036E00064697374616E6365206265747765656E85
:1036F000206E6F7A7A6C6520616E642068656174F3
:103700006265643F0053656C656374206E6F7A7AFE
:103710006C6520707265686561742074656D706594
:10372000726174757265207768696368206D617471
:103730006368657320796F7572206D617465726955
:10374000616C2E0049732066696C616D656E742032
:103750006C6F616465643F0049732066696C616DDC
:10376000656E74206C6F616465643F004E6F7720F6
:10377000492077696C6C2070726568656174206E91
:103780006F7A7A6C6520666F7220504C412E00492A
:103790002077696C6C2072756E207A2063616C6989
:1037A00062726174696F6E206E6F772E004E6F7754
:1037B0002072656D6F76652074686520746573741A
:1037C000207072696E742066726F6D207374656507
:1037D0006C2073686565742E00506C65617365209C
:1037E00072656D6F7665207368697070696E6720A9
:1037F00068656C706572732066697273742E004917
:103800002077696C6C2072756E2078797A206361FC
:103810006C6962726174696F6E206E6F772E2049D9
:10382000742077696C6C2074616B652061707072B4
:103830006F782E203132206D696E732E00466972CA
:1038400073742C20492077696C6C2072756E20741B
:1038500068652073656C667465737420746F20638B
:103860006865636B206D6F737420636F6D6D6F6E31
:1038700020617373656D626C792070726F626C6524
:103880006D732E0048692C204920616D20796F7579
:1038900072204F726967696E616C20507275736136
:1038A000206933207072696E7465722E20576F75AF
:1038B0006C6420796F75206C696B65206D65207470
:1038C0006F20677569646520796F75207468726F01
:1038D00075676820746865207365747570207072F0
:1038E0006F636573733F00452D636F727265637418
:1038F0003A005A2D636F72726563743A00592D63F2
:103900006F72726563743A00582D636F72726563EB
:10391000743A0053706F6F6C4A6F696E004669723B
:103920006D77617265004D6F64656C0053747269E8
:103930006374005761726E00485720536574757048
:1039400000485720536574757000473830004D3477
:1039500035004D3435205A004737360057697A61B3
:1039600072642073746174653A2025640A00576993
:103970007A61726420656E642073746174653A20A4
:1039800025640A00506C656173652075706461740C
:1039900065206669726D7761726520696E20796F46
:1039A0007572204D4D55322E2057616974696E67CE
:1039B00020666F722072657365742E004375727293
:1039C000656E74206D6D3A2000202020202020207C
:1039D00020202020202020202020202020004D3AC0
:1039E000426F774C656E204C6F616432436865634B
:1039F0006B20004C3A20202053617665202620451C
:103A0000786974202020200043757272656E7420DE
:103A10006D6D3A2000523A202D326D6D202852658E
:103A2000747261637429202020004D3A556E6C6FCA
:103A3000616428536176652F526574727929004C50
:103A40003A202B326D6D2028457874727564652993
:103A50002020200043757272656E74206D6D3A20CF
:103A600000523A20202D316D6D202852657472610C
:103A70006374292020004D3A556E6C6F61642053A9
:103A800061766520262045786974004C3A20202B09
:103A9000316D6D2028457874727564652920200089
:103AA0004D4D55204F4B2E20526573756D696E67D5
:103AB0002E2E2E004D4D55204F4B2E2052657375E6
:103AC0006D696E6720706F736974696F6E2E2E2E2C
:103AD000004D4D55204F4B2E20526573756D696E0C
:103AE000672074656D70657261747572652E2E2E17
:103AF0000046697820746865206973737565206174
:103B00006E64207468656E207072657373206275D0
:103B100074746F6E206F6E204D4D5520756E6974F4
:103B20002E00507265737320746865206B6E6F622F
:103B300020746F20726573756D65206E6F7A7A6C74
:103B4000652074656D70657261747572652E004DC7
:103B50004D55206E656564732075736572206174C0
:103B600074656E74696F6E2E002020202020202046
:103B70002020202020202020202020202000436CF6
:103B800069636B20776865656C20746F207265745B
:103B90007279002048656174627265616B204A61C8
:103BA0006D2F436C6F6720002020202020202020D4
:103BB000202020202020202020202020004D4D5596
:103BC00032206669726D77617265207665727369FD
:103BD0006F6E20696E76616C69642E205265717516
:103BE000697265642076657273696F6E3A206275DA
:103BF000696C64206E756D626572202564206F7239
:103C0000206869676865722E004D4D553253203D1E
:103C10003E204D4B33325320276F6B270A004D4D0A
:103C2000553253203D3E204D4B3332532027556EA5
:103C30006C6F61642046656564726174653A202525
:103C4000642564270A004D4B333253203D3E204DFE
:103C50004D55325320274D2564270A004D4B3332F2
:103C600053203D3E204D4D5532532027462564209C
:103C70002564270A004D4B333253203D3E204D4DE5
:103C800055325320275230270A004D4B33325320F0
:103C90003D3E204D4D5532532027452564270A00CF
:103CA0004D4B333253203D3E204D4D55325320274E
:103CB0005530270A004D4B333253203D3E204D4DA9
:103CC00055325320274330270A004D4B33325320BF
:103CD0003D3E204D4D55325320274C2564270A0088
:103CE0004D4B333253203D3E204D4D55325320270E
:103CF000542564270A004D4B333253203D3E204D5E
:103D00004D553253205265717565737420274D6D82
:103D100075436D643A3A2573270A004D4D55325369
:103D2000203D3E204D4B3332532027436F6E666952
:103D3000726D204D2564270A004D4D55202D2045DC
:103D40004E41424C4544004D4D553253203D3E209E
:103D50004D4B333253202741637469766520457893
:103D60007472756465723A2564270A004D4D5520BA
:103D700076657273696F6E2076616C6964004D4D73
:103D8000553253203D3E204D4B3332532027424E77
:103D90003A2564270A004D4D553253203D3E204DB3
:103DA0004B3332532027563A2564270A004D4D5590
:103DB000206E6F7420726573706F6E64696E672019
:103DC0002D2044495341424C4544004D363030008B
:103DD0004D363030204155544F002F2F20616374F1
:103DE000696F6E3A6D3630300A004D4D55325320B2
:103DF0003D3E204D4B333253202740746F6F6C4350
:103E000068616E67653A2564270A002F2F20616379
:103E100074696F6E3A6D6D754661696C6564556E57
:103E20006C6F61640A002F2F20616374696F6E3AB2
:103E30006D6D754661696C65644C6F616449525F74
:103E400053454E534F520A002F2F20616374696F00
:103E50006E3A6D6D754661696C65644C6F61644660
:103E6000494E44410A004D4D553253203D3E204DB0
:103E70004B33325320274F4B2041637469766520C2
:103E800045787472756465723A2564270A004D4B53
:103E90003353203D3E204D4D553253203A20485754
:103EA000522052455345540A004D4B333253203D66
:103EB0003E204D4D553253202746696C616D656E2D
:103EC00074207365656E2061742065787472756402
:103ED0006572270A004D4D5520737461727473200A
:103EE000726573706F6E64696E670A004D4D552080
:103EF0006E6F7420726573706F6E64696E670A000E
:103F00002F2F20616374696F6E3A6D6D7541747403
:103F1000656E74696F6E0A00452D415849532045FE
:103F20006E61626C65642E0A00452D41584953202C
:103F300044697361626C65642E0A0046696C616D48
:103F4000656E74206F7574206F662072616E676590
:103F5000202564200A004D4D5520556E6C6F61641C
:103F6000696E672046696C3A2564004D3730312010
:103F70004534004D373031204533004D3730312046
:103F80004532004D373031204531004D373031203A
:103F90004530004D4D55204C6F6164696E6720457A
:103FA00078743A2564002F2F20616374696F6E3A2C
:103FB0006A616D44657465637465640A004A616D85
:103FC0002C204D616C666F726D65642054697020A1
:103FD0006F7220436C6F672E0A0025632533642FB0
:103FE000256425630047312058352E302045342E76
:103FF000302046313030302E30004731205A302EBC
:1040000032302046313030302E30004731205835A4
:10401000352E30204532352046313430302E3000B8
:10402000473120592D322E302046313030302E305D
:1040300000473120583234302E30204532352E3072
:10404000202046323230302E300047393220453081
:104050002E30004731205A302E3320463130303058
:104060002E30004731205835352E302045382E303F
:104070002046323030302E300047312058352E3037
:10408000204533322E302046313830302E30004734
:1040900031205835352E30204533322E30204631F0
:1040A0003037332E30004731204634303030004D29
:1040B000323034205331303030004731205A3520EF
:1040C00046373230302E30303000473120452D31E8
:1040D0002E35303030302046323130302E303030D6
:1040E0003030004D38330047393000473231004717
:1040F00039322045302E3000473120583530205994
:1041000035352045332E3632373733004731205886
:10411000323030205935352045302E343933383659
:104120000047312058323030205937352045332E62
:10413000363237373300473120583530205937353C
:104140002045302E34393338360047312058353049
:10415000205939352045332E363237373300473131
:104160002058323030205939352045302E343933FB
:10417000383600473120583230302059313135201F
:1041800045332E363237373300473120583530200B
:10419000593131352045302E3439333836004731E6
:1041A0002058353020593133352045332E363237BB
:1041B00037330047312058323030205931333520E1
:1041C00045302E36363137340047312058323030C2
:1041D00020593135352045322E36323737330047B6
:1041E00031205831303020593135352045320047A3
:1041F000312058373520593135352045322E35009C
:104200004731204631303830004731205A302E3186
:1042100035302046373230302E30303000473120B4
:104220005835302059313535004739322045302E48
:104230003000473238004D313039004D31393000CF
:104240004D31303700542564004731205A302E3428
:104250002046313030302E3000473120592D332E5A
:10426000302046313030302E30004D383300473169
:1042700020583130302E30204531322E3520463115
:104280003030302E30004731205836302E30204527
:10429000392E302046313030302E30008F4079407A
:1042A000634053404A40314020400B40FA3FE53FD5
:1042B000EF40EB40E740E340CA40BA40AF40A64081
:1042C000473120583530205933352045252D2E33A0
:1042D00066001D4209420042EF41DF41C941B3413E
:1042E0009E41894173415E414A41364121410C4121
:1042F000F840496E76616C696420504944206361DE
:104300006C2E20726573756C74732E204E6F742042
:1043100073746F72656420746F20454550524F4D21
:104320002E004D353030004731205A31352046318E
:104330003530300047393100473120583530205969
:104340003139302045302046373030300047393061
:10435000004D3834004D373032204300473120586B
:104360003130205931383020463430303000473138
:10437000205A31302046313330302E303030004D2D
:10438000313430205330004D313034205330004729
:104390003120452D302E3037353030204632313007
:1043A000302E3030303030004D3130370025530A58
:1043B00020252D31362E313653252D33640A202504
:1043C0002D31362E313653252D33640025530A20E6
:1043D000252D31362E313653252D33640A20252DD7
:1043E00031362E313653252D33640A20252D3136B2
:1043F0002E313653252D33640025530A20252D31C7
:10440000362E313653252D33640A20252D31362E94
:10441000313653252D33640A20252D372E37535836
:1044200020252D336420205920252D33640020259C
:104430007325336401200A000A204952203A2020C3
:10444000202020202025332E316656002050575240
:104450003A20202020202025342E3166560A204282
:1044600045443A20202020202025342E3166560055
:1044700025530A20582025640A2059202564004627
:104480006C61736841697220495020416464723ADA
:10449000004D4D5532202020202020204E2F41005D
:1044A00025642E25642E25642D2564002046573A68
:1044B0000046696C2E2073656E736F7220762E3AFB
:1044C000004F6374203133203230323000453344A2
:1044D000763666756C6C0045494E53795F313061B4
:1044E00000315F37356D6D5F4D4B33002D2D2D2D18
:1044F0002D2D2D2D2D2D2D2D0020332E392E312D0E
:1045000033353138004669726D776172653A00253E
:10451000642E25642E25642E2564004D373032002C
:104520004D373031004D373032004D373031004D8E
:10453000313137204669727374206C61796572205D
:1045400063616C2E005049442063616C2E206669C3
:104550006E6973686564005049442063616C2E2065
:1045600020202020202020202020005072696E74FE
:1045700020706175736564005072696E74204641E5
:104580004E004E6F7A7A6C652046414E00546F742F
:10459000616C004C617374207072696E74004D4DD3
:1045A00055206C6F6164206661696C73004D4D55D8
:1045B000206661696C73004C617374207072696E5F
:1045C00074206661696C75726573004D4D5520707D
:1045D0006F776572206661696C73004D4D55206C74
:1045E0006F6164206661696C73004D4D5520666192
:1045F000696C7300546F74616C206661696C7572CC
:1046000065730043726173680046696C616D2E20AA
:1046100072756E6F75747300506F77657220666186
:10462000696C7572657300546F74616C20666169A2
:104630006C757265730043726173680046696C61E2
:104640006D2E2072756E6F75747300506F77657282
:10465000206661696C75726573004C6173742070BB
:1046600072696E74206661696C7572657300546F4F
:1046700074616C004C617374207072696E740050C8
:10468000494E444100416D6269656E740042656C3B
:10469000742073746174757300566F6C7461676510
:1046A000730054656D706572617475726573004254
:1046B000656C74207374617475730053656E736FE9
:1046C0007220696E666F0045787472756465722039
:1046D000696E666F0058595A2063616C2E206465BC
:1046E0007461696C7300756E6B6E6F776E004D4D03
:1046F000553220636F6E6E65637465640044617447
:10470000653A00686F77746F2E70727573613364E9
:104710002E636F6D00666F72756D2E7072757361AA
:1047200033642E636F6D00707275736133642E6332
:104730006F6D00746F20756E6C6F61642066696CBC
:10474000616D656E7400746F206C6F6164206669C2
:104750006C616D656E74005072657373207468656A
:10476000206B6E6F62003E43616E63656C00507239
:104770006568656174696E6720746F206375740085
:1047800050726568656174696E6720746F20656A30
:104790006563740050726568656174696E67207442
:1047A0006F20756E6C6F616400507265686561742E
:1047B000696E6720746F206C6F6164002F2F206119
:1047C0006374696F6E3A7061757365640025732058
:1047D0002534642052504D0A25732025346420521C
:1047E000504D0A00746D63323133305F676F746F00
:1047F0005F7374657020256420256420256420255E
:1048000064200A004E6F203078464620726563654A
:10481000697665640053656E64696E67203078461A
:1048200046001F1F1F1F1F1F1F1F46696C616D65FC
:104830006E742073656E736F7220626F6172642094
:104840006368616E67652064657465637465643A66
:10485000207265766973696F6E25530A004E6F7713
:104860002066726573682066696C653A20004E6F39
:104870007720646F696E672066696C653A20002254
:1048800020706F73002220706172656E743A22008E
:10489000535542524F5554494E452043414C4C20AC
:1048A0007461726765743A220043616E6E6F7420A2
:1048B000656E746572207375626469723A20005384
:1048C000442063617264206F6B006F70656E526F7D
:1048D0006F74206661696C656400766F6C756D65D8
:1048E0002E696E6974206661696C656400534420AA
:1048F000696E6974206661696C0057726974696ECB
:104900006720746F2066696C653A200046696C65A3
:104910002073656C6563746564002053697A653A39
:10492000200046696C65206F70656E65643A2000F2
:10493000747279696E6720746F2063616C6C207388
:1049400075622D67636F64652066696C6573207797
:1049500069746820746F6F206D616E79206C657664
:10496000656C732E006F70656E206661696C65649E
:104970002C2046696C653A2000536F7274696E672B
:104980002066696C657300536F6D652066696C65A0
:10499000732077696C6C206E6F7420626520736F72
:1049A000727465642E204D61782E204E6F2E206F1C
:1049B000662066696C657320696E203120666F6CB5
:1049C00064657220666F7220736F7274696E6720FF
:1049D0006973203130302E00506C65617365207230
:1049E000657374617274004D494E54454D50004DCD
:1049F000494E54454D502042454400746D63323158
:104A000033305F686F6D655F656E746572286178BD
:104A100065735F6D61736B3D307825303278290A9C
:104A200000746D63323133305F686F6D655F657838
:104A3000697420746D63323133305F73675F686F00
:104A40006D696E675F617865735F6D61736B3D3033
:104A500078253032780A00544D4320445249564557
:104A600052204F56455254454D50005365742074A2
:104A7000656D70657261747572653A0054656D702C
:104A8000657261747572652063616C6962726174CC
:104A9000696F6E206661696C65640054656D706550
:104AA0007261747572652063616C696272617469A8
:104AB0006F6E2069732066696E6973686564206132
:104AC0006E64206163746976652E2054656D702E66
:104AD0002063616C6962726174696F6E2063616EDC
:104AE0002062652064697361626C656420696E2070
:104AF0006D656E752053657474696E67732D3E54D1
:104B0000656D702E2063616C2E0049523A00464953
:104B10004E44413A0050494E44413A0053656E7349
:104B20006F722073746174650020003E003E0020A7
:104B3000003E003E0054656D70657261747572656B
:104B40002063616C6962726174696F6E206661696D
:104B50006C65642E20436F6E74696E75652077698D
:104B60007468207072657373696E6720746865205D
:104B70006B6E6F622E0054656D7065726174757234
:104B8000652063616C6962726174696F6E20646F25
:104B90006E652E20436F6E74696E7565207769743B
:104BA00068207072657373696E6720746865206B26
:104BB0006E6F622E002020300020203100776F724F
:104BC0006C6420636F6F7264696E617465733A2000
:104BD00028252E33662C20252E33662C20252E33B7
:104BE00066290A0043757272656E7420706F7320B7
:104BF0005A5F415849533A252E33660A43757272FB
:104C0000656E7420706F7320455F415849533A2593
:104C10002E33660A00416674657220776169746993
:104C20006E6720666F722074656D703A0A43757204
:104C300072656E7420706F7320585F415849533A03
:104C4000252E33660A43757272656E7420706F7319
:104C500020595F415849533A252E33660A00726540
:104C6000636F7665725F6D616368696E655F7374AB
:104C70006174655F61667465725F706F7765725F9E
:104C800070616E69632C20696E697469616C2000C3
:104C900050525553412075766C6F00473420533085
:104CA000004D32362053256C75004D31303620537F
:104CB000004D3232302053256400473120462564B0
:104CC000004D383200473932204500473120452514
:104CD000302E3366204632373030004731205A2597
:104CE00066005052555341204D424C2056310047EA
:104CF0003120582566205925662046333030300053
:104D0000506F736974696F6E20726561642066729A
:104D10006F6D20656570726F6D3A004D32332025DE
:104D200073002E67636F002C20666565646D756C7B
:104D30007469706C793A0046656564726174653AAD
:104D40000047312045252D302E336620463237303E
:104D5000300047312045352046313230004D383360
:104D6000004D31303920532564004D313930205306
:104D70002564004D313034205325640047323820FB
:104D8000582059004731205A252E336620463830A6
:104D900030004731205A252D302E33662046252DF0
:104DA000302E33660047312045252D302E336620C6
:104DB0004632373030004D38330000002110422099
:104DC00063308440A550C660E770088129914AA1EC
:104DD0006BB18CC1ADD1CEE1EFF131121002733263
:104DE0005222B5529442F772D662399318837BB33C
:104DF0005AA3BDD39CC3FFF3DEE3622443342004F3
:104E00000114E664C774A44485546AA54BB528858B
:104E10000995EEE5CFF5ACC58DD553367226111642
:104E20003006D776F6669556B4465BB77AA71997DB
:104E30003887DFF7FEE79DD7BCC7C448E5588668CA
:104E4000A7784008611802282338CCC9EDD98EE92B
:104E5000AFF9488969990AA92BB9F55AD44AB77AA2
:104E6000966A711A500A333A122AFDDBDCCBBFFB7B
:104E70009EEB799B588B3BBB1AABA66C877CE44CB2
:104E8000C55C222C033C600C411CAEED8FFDECCDCB
:104E9000CDDD2AAD0BBD688D499D977EB66ED55E82
:104EA000F44E133E322E511E700E9FFFBEEFDDDF1B
:104EB000FCCF1BBF3AAF599F788F8891A981CAB1A7
:104EC000EBA10CD12DC14EF16FE18010A100C230D9
:104ED000E3200450254046706760B9839893FBA394
:104EE000DAB33DC31CD37FE35EF3B1029012F32229
:104EF000D2323542145277625672EAB5CBA5A895E4
:104F000089856EF54FE52CD50DC5E234C324A01478
:104F100081046674476424540544DBA7FAB7998773
:104F2000B8975FE77EF71DC73CD7D326F2369106C8
:104F3000B01657667676154634564CD96DC90EF9BB
:104F40002FE9C899E9898AB9ABA944586548067818
:104F50002768C018E1088238A3287DCB5CDB3FEBD3
:104F60001EFBF98BD89BBBAB9ABB754A545A376A68
:104F7000167AF10AD01AB32A923A2EFD0FED6CDDA3
:104F80004DCDAABD8BADE89DC98D267C076C645CB8
:104F9000454CA23C832CE01CC10C1FEF3EFF5DCFB3
:104FA0007CDF9BAFBABFD98FF89F176E367E554E08
:104FB000745E932EB23ED10EF01E7C3C3E3F2F2AF3
:104FC000225C005265636F766572696E672070724D
:104FD000696E742020202000506C65617365207715
:104FE000616974006001F4017001EA019001E0015F
:104FF000B001D601D001CC010002C2013002B801DB
:105000006002AE019002A401D0029A012003900137
:1050100070038601C0037C0130047201A0046801A2
:1050200020055E01B005540160064A0120074001D9
:10503000F0073601F0082C01100A2201500B18016C
:10504000C00C0E01500E04013010FA002012F000C6
:105050005014E600C016DC007019D200501CC800C5
:10506000501FBE007022B400B025AA00F028A00096
:10507000202C9600302F8C0010328200A034780053
:10508000F0366E00E0386400803A5A00403B55002C
:10509000E03B5000F03C4600C03D3C00603E32002A
:1050A000E03E2800303F1E00503F1900703F1400C2
:1050B000A03F0F00C03F0A00D03F0500E03F0000C6
:1050C00045787472756465722066616E20737065D0
:1050D0006564206973206C6F776572207468616EF7
:1050E000206578706563746564005072696E742021
:1050F00066616E207370656564206973206C6F77DC
:105100006572207468616E2065787065637465648B
:10511000004D494E54454D5020414D42004D41589F
:1051200054454D50004D415854454D502042454442
:10513000004D415854454D5020414D4200202D20F6
:10514000496E76616C696420657874727564657205
:10515000206E756D62657220210070012C01900136
:105160002701B0012201C0011D01F0011801100248
:10517000130130020E016002090190020401C00215
:10518000FF000003FA004003F5008003F000D003A5
:10519000EB002004E6007004E100E004DC004005C0
:1051A000D700C005D2004006CD00D006C800800759
:1051B000C3003008BE00F008B900C009B400B00A4E
:1051C000AF00B00BAA00D00CA500000EA000500F3D
:1051D0009B00C01096005012910000148C00C01566
:1051E0008700B0178200B0197D00D01B7800001E28
:1051F000730040206E0090226900F0246400402774
:105200005F0090295A00E02B5500102E50002030EE
:105210004B0010324600E033410090353C0010371F
:10522000370070383200A0392D00B03A2800A03B7A
:105230002300603C1E00103D1900903D1400103EFC
:105240000F00703E0A00C03E0500003F00009013B2
:105250007D00B0157800F0177300601A6E00F01C26
:105260006900A01F640050225F0020255A00E0273B
:105270005500902A5000202D4B00A02F4600F03101
:10528000410010343C00F0353700A037320020399F
:105290002D00603A2800703B2300603C1E00203D3A
:1052A0001900C03D1400403E0F00A03E0A00F03E31
:1052B0000500403F0000703FFBFF903FF6FFB03F0E
:1052C000F1FFC03FECFFD03FE7FFE03FE2FFF03FE0
:1052D000DDFFF03FD8FF20484F54454E442054484E
:1052E00045524D414C2052554E415741590020489E
:1052F00045415442454420544845524D414C20526A
:10530000554E4157415900544845524D414C205249
:10531000554E415741590042454420544845524D4D
:10532000414C2052554E4157415900205448455256
:105330004D414C2052554E41574159202820505242
:10534000454845415420484F54454E442900205477
:105350004845524D414C2052554E41574159202805
:105360002050524548454154204845415442454407
:10537000290050524548454154204552524F520051
:105380004245442050524548454154204552524FD1
:1053900052004572723A2000207472696767657224
:1053A0006564210048656174657273207377697460
:1053B00063686564206F66662E20003A200072657F
:1053C00073756C742076616C75653A2025640A00EB
:1053D00020693D25326420636E743D253264207659
:1053E000616C3D2532640A00636C75737465727379
:1053F0003A0A0020693D25326420737465703D25AA
:1054000032640A00736F727465642073616D706C2E
:1054100065733A0A00252D3773003A200025642F62
:105420003600252D3230530020202020202020203F
:10543000202020202020202020202000203A200092
:10544000202020202020202020202020202020205C
:105450002020202000252D32307300202020202005
:1054600020202020202020200025730025632533C4
:10547000642F25642563005A25362E326625630085
:105480005A2020202D2D2D2000256325336425252D
:10549000002D2D2D002533686864002533532533F6
:1054A000732525005553420020202000205344003E
:1054B0002025753E257500203F3E25750020462598
:1054C000750020463F002046302020005025342E15
:1054D00031662F2532640025632D2D3A2D2D202095
:1054E0000025632533756820256325630025632522
:1054F0003032753A25303275256325630050494EA8
:1055000044412048656174696E670043616C69625B
:10551000726174696F6E20646F6E650043616C69BF
:1055200062726174696E67205A0042656420646F1C
:105530006E65004265642048656174696E67004865
:10554000656174696E6720646F6E652E00486561E1
:1055500074696E6700456A6563742066696C616D85
:10556000656E7400506C656173652070756C6C209D
:105570006F75742066696C616D656E7420696D6D00
:105580006564696174656C7900556E6C6F616469FE
:105590006E672066696C616D656E74005265737527
:1055A0006D696E67207072696E7400526573657400
:1055B0000052656E616D65004669727374206C619E
:1055C0007965722063616C2E0053656C65637400AD
:1055D000537465656C207368656574730053686502
:1055E000657400537570706F7274004661696C2049
:1055F0007374617473204D4D55004661696C20735E
:105600007461747300537461746973746963732093
:10561000200043616C6962726174696F6E0041754C
:10562000746F4C6F61642066696C616D656E7400A7
:10563000456A6563742066696C616D656E740055BA
:105640006E6C6F61642066696C616D656E74004C90
:105650006F616420746F206E6F7A7A6C65004C6F96
:1056600061642066696C616D656E74004E6F2053D5
:10567000442063617264005072696E742066726FB8
:105680006D20534400526573756D65207072696EAC
:1056900074005061757365207072696E7400526594
:1056A00073756D65207072696E74005072656865FF
:1056B00061740054756E65004C6976652061646A9A
:1056C000757374205A00496E666F20736372656546
:1056D0006E0046696E697368696E67206D6F7665E6
:1056E0006D656E7473004272696768746E6573737A
:1056F000004173736973740053696C656E74004F75
:105700006E6365004C6F756400536F756E64004D79
:105710004D55204D6F646500437261736820646568
:10572000742E00537465616C7468004E6F726D6105
:105730006C0046616E7320636865636B0050617531
:10574000736500436F6E742E004653204163746985
:105750006F6E0046696C2E2073656E736F72004326
:1057600068616E67652066696C616D656E74004680
:105770006C6F77005370656564004E2F41004D617A
:10578000676E65747320636F6D702E005A2D707292
:105790006F6265206E722E004D65736800457272EF
:1057A0003A205052494E542046414E204552524FC5
:1057B00052004572723A20455854522E2046414EAE
:1057C000204552524F52002F2F20616374696F6E33
:1057D0003A726573756D656400252D392E39535BFA
:1057E000002563252D31382E31387325630046613D
:1057F000726D206E756D626572004D363030002519
:1058000063252D31382E3138532563005B25735DB8
:105810002563005B25535D2563002563252D313805
:105820002E31385300252E31305320002563252D8D
:1058300031382E3138732563002563252D2E3136FE
:105840005320002563252E3135533A2573253364C3
:1058500000457872656D65207370616E206F6620FB
:10586000746865205A2076616C7565732100426505
:1058700064206C6576656C696E67206661696C652D
:10588000642E2053656E736F72206469646E742099
:10589000747269676765722E20446562726973204D
:1058A0006F6E206E6F7A7A6C653F205761697469FC
:1058B0006E6720666F722072657365742E00536583
:1058C0007474696E67732053746F726564005374E7
:1058D0006F7265642073657474696E677320726596
:1058E000747269657665640048617264636F6465AB
:1058F000642044656661756C742053657474696EC8
:105900006773204C6F6164656400563200000000CC
:10591000C8420000C8420000C8430080CF430000D6
:10592000484300004843000040410000F042E803C3
:105930000000E8030000C8000000881300000040D9
:105940009C4400409C440000000000000000204EE9
:1059500000000000204100002041CDCCCC3E0000E2
:105960009040000000000000000000000000CDCCCE
:10597000CC3E3D0A8141FF08433EB099AB438F4284
:10598000FC42E65A343F4C62B04500000000004043
:105990004000003442000000000000000000000051
:1059A00041000000E03F0000C8420000C842000083
:1059B00040410000F042C0030000C0030000C800E6
:1059C00000008813000010101010627573793A20DF
:1059D00070617573656420666F7220696E7075748E
:1059E00000627573793A2070617573656420666F23
:1059F00072207573657200627573793A2070726FE8
:105A000063657373696E67004D3234004D32332025
:105A10002573006175746F25692E67002220666109
:105A2000696C65643A204275666665722066756CBD
:105A30006C2100456E717565696E6720746F207406
:105A400068652066726F6E743A2022004572726F2C
:105A5000723A002200456E717565696E6720746F39
:105A6000207468652066726F6E743A202200656348
:105A7000686F3A00454550524F4D204572726F7223
:105A8000004D494E54454D502042454420666978AA
:105A90006564004D494E54454D5020484F54454E85
:105AA000442066697865640054696D656F7574009B
:105AB000427269676874004D6F6465004175746F68
:105AC0000044696D004C6576656C2044696D6D65B8
:105AD00064004C6576656C204272696768740046A4
